:100000000C9434000C9446000C9446000C9446006A
:100010000C9446000C9446000C9446000C94460048
:100020000C9446000C9446000C9446000C94460038
:100030000C9446000C9446000C9446000C94460028
:100040000C9466000C9446000C9446000C944600F8
:100050000C9446000C9446000C9446000C94460008
:100060000C9446000C94460011241FBECFEFD8E03C
:10007000DEBFCDBF21E0A0E0B1E001C01D92A13004
:10008000B207E1F70E9448000C94B3000C94000002
:10009000569A83E884BD81E085BDEEE6F0E080817C
:1000A00081608083789492E3E7EAF1E63197F1F793
:1000B00000C00000809100018E5C8093000180915F
:1000C0000001833388F390930001EECF1F920F92CB
:1000D0000FB60F9211242F935F936F937F938F939B
:1000E0009F93AF93BF93809100012FEF829FC00138
:1000F000112464E670E00E948B0067BDBF91AF9150
:100100009F918F917F916F915F912F910F900FBE73
:100110000F901F90189597FB072E16F4009407D0A8
:1001200077FD09D00E949F0007FC05D03EF4909512
:1001300081959F4F0895709561957F4F0895AA1BF3
:10014000BB1B51E107C0AA1FBB1FA617B70710F0C2
:10015000A61BB70B881F991F5A95A9F780959095F4
:0A016000BC01CD010895F894FFCF13
:00000001FF
